:020000040800F2
:1000000040040020C1010008670B00085F0B0008D6
:10001000630B0008E708000809140008000000004E
:10002000000000000000000000000000B50E000805
:10003000E909000800000000F50B00087510000831
:10004000DB010008DB010008DB010008DB01000820
:10005000DB010008DB010008DB010008DB01000810
:10006000DB010008DB010008DB010008DB01000800
:10007000DB010008DB010008DB010008DB010008F0
:10008000DB010008DB010008DB010008DB010008E0
:10009000DB010008DB010008DB010008DB010008D0
:1000A000DB010008E5100008DB010008DB010008A7
:1000B000DB010008DB010008DB010008DB010008B0
:1000C000DB010008DB010008DB010008DB010008A0
:1000D000DB010008DB010008DB010008DB01000890
:1000E000DB010008DB010008DB010008DB01000880
:1000F000DB010008DB010008DB010008DB01000870
:10010000DB010008DB010008DB010008DB0100085F
:10011000DB010008DB010008DB010008DB0100084F
:10012000DB010008DB010008DB010008DB0100083F
:10013000DB010008DB010008DB010008DB0100082F
:10014000DB010008DB010008DB010008DB0100081F
:10015000DB010008DB010008DB010008DB0100080F
:10016000DB010008DB010008DB010008DB010008FF
:10017000DB010008DB010008DB010008DB010008EF
:10018000DB010008DB010008DB010008DB010008DF
:10019000DB010008DB010008DB010008DB010008CF
:1001A000DB010008DB010008DB010008DFF80CD0F0
:1001B00000F02AFA00480047811D00084004002092
:1001C0000648804706480047FEE7FEE7FEE7FEE7F1
:1001D000FEE7FEE7FEE7FEE7FEE7FEE77D1000082C
:1001E000AD01000800F0004230F000400AD0C10D1F
:1001F00001F56071C0F3160042EA0151C2084007E0
:100200001143704700200146704730B50B46014648
:1002100000202022012409E021FA02F59D4205D3A5
:1002200003FA02F5491B04FA02F52844151EA2F14F
:100230000102F1DC30BD2DE9F05F05460020924659
:100240009B4688460646814640241BE02846414698
:100250004746224600F0F9F953465A46C01A9141E2
:1002600010D311461846224600F0E0F92D1A67EB2C
:1002700001084F4622460120002100F0D7F917EB74
:1002800000094E41201EA4F10104DFDC484631463E
:100290002A464346BDE8F09F2DE9FE4F804681EA9D
:1002A0000300C00F0C46009021F0004123F00045F0
:1002B000B8EB0200A94105D24046214690461C46B3
:1002C0000B46024623F00040104347D0270DC7F3EA
:1002D0000A00C3F30A510290401A019040286BDAD9
:1002E000C3F3130040F4801B0098924620B1002312
:1002F000D2EB030A63EB0B0B01985946C0F14002A5
:10030000504600F093F906460D4650465946019A6C
:1003100000F0ABF910EB08006141002487EA1152AC
:1003200084EAE7731A4340D0009A62B3019A012A23
:100330004FEA075215DC001B61EB02014FF000424F
:1003400002EA0752CDE90042001C41F58011324615
:100350002B4600F0ABF903B0BDE8F08F40462146D4
:10036000F9E7001B61EB0201001C41F58013001846
:100370005B412018A2F5001747EB030140EAD57056
:10038000B6196D4111E06D084FEA360645EAC075B1
:100390004FEA0752001B61EB0201001C41F580117E
:1003A00049084FEA30000019514132462B4603B04C
:1003B000BDE8F04F00F06BB9009801224000002327
:1003C000D0EB020263EBE073009821464FEAE07441
:1003D000B8EB000061EB0401E9E783F000435BE761
:1003E00081F0004158E72DE9FE4F81EA030404F053
:1003F000004421F0004100944FF0000B23F0004333
:1004000050EA01045ED052EA03045BD0C3F30A54FD
:10041000C1F30A552C44A4F2F3340194A0FB025416
:10042000C1F3130141F48011C3F3130343F48013A8
:1004300001FB024400FB034E840A970A44EA8154FC
:1004400047EA8357A4FB076802958D0A05FB0785D9
:100450004FEA932C04FB0C542705029D4FEA0658E3
:1004600047EA1637B5EB08056EEB070C870E920EC0
:1004700047EA811742EA8312A7FB0201B6EB0B01A0
:1004800064EB00042B0D43EA0C335E1844EB1C5064
:10049000DA465146E7FB0201C5F313044FEA0B337A
:1004A00043EA14534FEA0432019C43EA0603A4F1E1
:1004B0000C040294009CCDE900B400F0F7F803B0FE
:1004C000BDE8F08F00200146F9E72DE9F04D81EA03
:1004D000030404F0004B21F0004514464FF0000ADD
:1004E00023F0004150EA050220D054EA01021DD059
:1004F000C5F30A570246C5F31303C1F31300C1F352
:100500000A5640F4801543F48013A7EB0608101B2D
:10051000D64608F2FD3873EB050002D308F1010856
:1005200001E092185B41B8F1000F03DA00200146A8
:10053000BDE8F08D00204FF48011064684460EE0A1
:10054000171B73EB050705D3121B63EB050306436B
:100550004CEA010C49084FEA300092185B4150EA1E
:100560000107EDD152EA030012D082EA040083EAC7
:100570000501084305D0101BAB4106D20122002320
:1005800006E000224FF0004302E06FF0010253103A
:100590001AEB06004CEB085110EB0A0041EB0B0183
:1005A000BDE8F04D00F073B8C1F30A52C1F3130176
:1005B00040F2FF3341F480119A4202DA00200146F2
:1005C000704740F233439A42A2F2334202DC524275
:1005D00000F03BB800F02AB830B5041E71F10004F9
:1005E00004DB4FF00044404264EB0101141E73F140
:1005F000000405DB1C464FF00043524263EB04034A
:10060000994208BF904230BD064C074D06E0E068B5
:1006100040F0010394E8070098471034AC42F6D349
:10062000FFF7C8FDE81D0008081E0008202A04DBAB
:10063000203A00FA02F1002070479140C2F12003F5
:1006400020FA03F3194390407047202A04DB203A34
:1006500021FA02F00021704721FA02F3D040C2F1E2
:1006600020029140084319467047202A06DBCB1729
:10067000203A41FA02F043EAE07306E041FA02F35D
:10068000D040C2F12002914008431946704710B58E
:10069000141E73F1000408DA401C41F100019218A5
:1006A0005B411A4301D120F0010010BD2DE9F04D4E
:1006B00092469B4611B1B1FA81F202E0B0FA80F2A3
:1006C00020329046FFF7B2FF04460F4640EA0A0088
:1006D00041EA0B0153465A46084313D0114653EAE8
:1006E000010019D0C8F140025046FFF7AEFF0546A1
:1006F0000E46504659464246FFF798FF084305D03C
:10070000012004E020463946BDE8F08D0020054375
:1007100046EAE0762C4337430A986305E40AA0EBE7
:1007200008000022FD0A44EA47540A3002D500209E
:100730000146E9E7010510196941DDE9084500199D
:100740006941BDE8F04DA2E721B1826842F00102A3
:10075000826003E0826822F001028260704700003C
:100760000021084A1168084A1140D0E900231A43C1
:1007700083681A43C3681A431143044AC2F8041336
:100780007047000004230140E030FCFF00200140DE
:1007900021B1826842F48072826003E0826822F4B0
:1007A00080728260704721B1826842F40072826078
:1007B00003E0826822F400728260704730B502461E
:1007C000002000235068104C20400D790C6844EA4A
:1007D00005242043506090680C4C2040D1E903541C
:1007E0002C438D682C434D7944EA450420439060A6
:1007F000D06A20F470000C7D641EE4B2234340EA0A
:100800000350D06230BD0000FFFEFFFCFDF7FFC0CB
:10081000F0B504460D4600200021092D11DDE068E9
:10082000A5F10A0606EB4607072606FA07F18843F4
:10083000A5F10A0606EB460603FA06F10843E06056
:100840000CE0206905EB4507072606FA07F1884307
:1008500005EB450603FA06F108432061072A0FDA83
:10086000606B561E06EB86071F2606FA07F18843C3
:10087000561E06EB860605FA06F10843606322E081
:100880000D2A0FDA206BD61F06EB86071F2606FA05
:1008900007F18843D61F06EB860605FA06F10843E2
:1008A000206310E0E06AA2F10D0606EB86071F2622
:1008B00006FA07F18843A2F10D0606EB860605FA53
:1008C00006F10843E062F0BD816841F0804181603B
:1008D000704700210160017141718160C160016157
:1008E00001210175704700BFFEE721B1026842F0A7
:1008F0000102026003E0026822F001020260704718
:1009000010B500220268134B1A40CC680B682343D1
:100910004C6923438C692343CC6923430C6A2343EA
:100920004C6A23438C6A23434C6B23438C6B2343D5
:100930001A430260426922F00702D1E90B342343D3
:100940001A4342610B6943604B6883608B68C360E4
:1009500010BD00003F801CF01E48008800EE100A09
:10096000F8EE400A9FED1C1A80EE810ADFED1B0AAB
:1009700020EE200A1A4880ED000AD0ED000AB1EE00
:10098000041AB2EE090A10EE810A164880ED000A38
:1009900090ED000AFAEE040AB4EEE00AF1EE10FA65
:1009A00004D8BAEE040A80ED000A0DE00D4890ED7F
:1009B000000AF2EE040AB4EEE00AF1EE10FA03DBEC
:1009C000B2EE040A80ED000AB2EE010A054880ED9D
:1009D000000A704728000020000080453333534050
:1009E00030000020340000207047000000B587B0C0
:1009F0000121084600F000F90121102000F00CF957
:100A000000208DF81A0001208DF81B0002208DF8BF
:100A100019008DF818000002059005A9174800F08C
:100A200031F802208DF818004002059005A91348FE
:100A300000F028F807220A21104800F06BF807227E
:100A400009210E4800F066F84FF4E13001900020D3
:100A5000ADF80800ADF80A00ADF80C00ADF81000D4
:100A60000C20ADF80E0001A9054800F05FFC012143
:100A7000034800F041FC07B000BD00000000024048
:100A800000100140F0B50A4600210023002400BFF9
:100A90003DE0012505FA01F3156805EA03049C42CF
:100AA00034D105684F000326BE40B5430560157973
:100AB0004E00B5400668354305601579012D02D01A
:100AC0001579022D16D185684F000326BE40B54327
:100AD000856055794E00B540866835438560456828
:100AE00001268E40B5434560456896798E40B6B282
:100AF00035434560C5684F000326BE40B543C56019
:100B0000D5794E00B540C6683543C560491C1029EB
:100B1000BFD3F0BDF0B5002300244D07ED0E02FA5F
:100B200005F3CE1000F1200555F826504E07F70EBC
:100B30000F26BE40B543CF1000F1200646F82750DF
:100B4000CE1000F1200555F8265045EA0304CE10DA
:100B500000F1200545F82640F0BD4183704700BFF5
:100B6000FEE700BFFEE7704770B5002100230F22AB
:100B7000C4781CB3174C246804F4E064C4F5E06442
:100B8000C4F30721C1F10404E3B20A4144789C4054
:100B9000E1B28478144021430C07210E0E4C0578F5
:100BA0006155047804F01F050124AC4005786D11EF
:100BB000AD0005F1E025C5F8004109E0047804F036
:100BC0001F050124AC40054D0678761145F82640F6
:100BD00070BD00000CED00E000E400E080E100E00A
:100BE00002490143024A1160704700000000FA0503
:100BF0000CED00E07047000029B1064A126802437C
:100C0000044B1A6004E0034A12688243014B1A60E5
:100C1000704700003038024029B1064A126802438A
:100C2000044B1A6004E0034A12688243014B1A60C5
:100C30007047000044380240F0B500210022002433
:100C4000022500260223324F3F6807F00C0121B134
:100C5000042905D0082937D105E02E4F076036E07A
:100C60002D4F076033E02A4F3F1F3F68C7F3805680
:100C7000274F3F1F3F6807F03F036EB1264FB7FB7A
:100C8000F3F7DFF88CC0ACF1040CDCF800C0CCF357
:100C9000881C07FB0CF40CE01E4FB7FBF3F7DFF8E2
:100CA00070C0ACF1040CDCF800C0CCF3881C07FB6E
:100CB0000CF4174F3F1F3F68C7F301477F1C7D00AF
:100CC000B4FBF5F7076002E0124F076000BF00BFFA
:100CD0000F4F3F6807F0F0010909104F7A5C076871
:100CE000D74047600A4F3F6807F4E051890A0B4F2D
:100CF0007A5C4768D7408760054F3F6807F46041DA
:100D0000490B064F7A5C4768D740C760F0BD0000CA
:100D1000083802400024F40040787D0114000020CF
:100D20001CB501214FF48270FFF766FF0820009088
:100D300001208DF8040000208DF8060002208DF8B7
:100D4000070000208DF8050069461348FFF79AFE5A
:100D50000420009069461148FFF794FE402000905F
:100D600069460E48FFF78EFE8020009069460B48CA
:100D7000FFF788FE08210848FFF7EFFE0421074827
:100D8000FFF7EBFE40210548FFF7E7FE802103480F
:100D9000FFF7E3FE1CBD00000020024000080240F7
:100DA0001CB501210420FFF727FF08200090032035
:100DB0008DF8040000208DF8070069460148FFF710
:100DC00061FE1CBD0008024000B599B001218805F4
:100DD000FFF712FF31480B9031480C9000200D9026
:100DE00001200E9000200F9010904FF400601190A1
:100DF0008000129040111390400214900020159032
:100E0000012016900020179018900A900AA92548F2
:100E1000FFF776FD01212348FFF767FD0121080256
:100E2000FFF7FAFE00200090019002904FF47060EE
:100E300003906846FFF794FC04A8FFF74AFD0020E2
:100E400004908DF8140001208DF815000020069004
:100E50000790089001208DF8240004A90F484C3811
:100E6000FFF7ACFC032301220D210C484C38FFF79F
:100E7000CFFC012109484C38FFF795FC01210748B8
:100E80004C38FFF785FC012104484C38FFF75CFC27
:100E900002484C38FFF718FD19B000BD4C20014046
:100EA000280000201064024010B5FFF779FFFFF71B
:100EB0008BFF10BD704700000CB500200190009022
:100EC0004148006840F480303F49086000BF3E4818
:100ED000006800F4003000900198401C01900098D8
:100EE00018B90198B0F5A04FF1D13748006800F467
:100EF000003010B10120009001E000200090009827
:100F0000012860D130484030006840F080502E49C0
:100F1000403108602D48006840F440402B4908608B
:100F200029480830006828490831086008460068E8
:100F300040F4004008600846006840F4A050086093
:100F40002348091F0860081F006840F08070091FCF
:100F5000086000BF1C48006800F000700028F9D04D
:100F60001A48006840F480301849086000BF1748EC
:100F7000406800F480300028F9D01448006840F43C
:100F800000301249086000BF1048406800F400308B
:100F90000028F9D040F205700E4908600A48083070
:100FA000006820F00300084908310860084600681E
:100FB00040F00200086000BF03480830006800F0FD
:100FC0000C000828F8D10CBD003802400070004029
:100FD000195A4007003C024030B50146481EB0F1A6
:100FE000807F01D3012030BD481E4FF0E0225061C8
:100FF00050170F22002807DA13071D0E094B00F0C7
:101000000F04241F1D5503E013071C0E064B1C5430
:1010100000BF00204FF0E022906107201061002007
:10102000E1E7000018ED00E000E400E031B5104811
:1010300000684FF47A71B0FBF1F52846FFF7CCFF5A
:10104000002408E000BF4FF0E020006900F4803089
:101050000028F8D0641C00988442F3D34FF0E020BD
:10106000006920F001004FF0E021086138BD000068
:101070000000002010B500F033F910BD10B5154880
:10108000006840F47000134908601348006840F09D
:1010900001001149086000200F49083108600E481E
:1010A00000680E4908400C4908600D48091D086099
:1010B000081F006820F48020091F086000200649EE
:1010C0000C310860FFF7F8FE4FF0006001498039ED
:1010D000086010BD88ED00E000380240FFFFF6FE1A
:1010E0001030002410B52DED028B01211A4800F0BC
:1010F00057F870B319480068401C18490860084642
:101100000068052190FBF1F201FB120008B9FFF71E
:1011100023FC124800684FF47A7190FBF1F201FB56
:10112000120050B90E480068FFF75CF841EC180B4C
:1011300053EC182B0BA000F08DF9084800680E49FD
:10114000884202DB0020054908600121024800F0C6
:1011500018F8BDEC028B10BD0000014024000020F7
:1011600034000020C6F8D1B9D6B5203D2025662030
:101170004B70610A000000006043993BCA43028241
:101180007047CA430282704721B1028842F00102CF
:10119000028004E002884FF6FE731A400280704716
:1011A00030B50246002000230024158A05EA010319
:1011B000958905EA010413B10CB1012000E000207B
:1011C00030BD1AB183890B43838102E083898B434D
:1011D000838170470EB501210846FFF71DFD0920E8
:1011E000019044F24F60ADF800000020ADF8080017
:1011F000ADF8020001208DF80A006946084800F0A9
:1012000011F801210648FFF7B9FF012211460448F1
:10121000FFF7D7FF01210248FFF7B6FF0EBD000020
:101220000000014000220288184B98420ED0184B53
:1012300098420BD0B0F1804F08D0164B984205D0A1
:10124000154B984202D0154B984204D14FF68F733C
:101250001A404B881A43124B984207D0114B9842C0
:1012600004D04FF6FF431A400B891A4302804B68A3
:10127000C3620B880385054B984202D0044B984209
:1012800001D18B7A038601238382704700000140DD
:10129000000401400004004000080040000C004031
:1012A000001000400014004010B500F003F8FFF7F4
:1012B00091FF10BD08B54FF4E060FFF791FC1920D5
:1012C0008DF8000000208DF8010003208DF8020049
:1012D00001208DF803006846FFF746FC08BD0000BA
:1012E0000448006820B103480068401E01490860B6
:1012F000704700002C00002021B1828942F4005286
:10130000828104E082894DF6FF731A408281704722
:1013100002460020B1F5007F00D100BF13880B40CA
:101320000BB1012000E00020704700002DE9FF47CD
:1013300005460E460024A14600BFA046B08900B174
:1013400000BF2C8A24F44054F08804432C82AC89DA
:1013500041F20C608443B0883189084371890843A5
:101360000443AC81AC8A24F44074B0890443AC8259
:101370006846FFF761FC2048854202D01F4885423D
:1013800002D1DDF80C9001E0DDF80890A88900F4A6
:10139000004040B109EBC90000EB09103168490079
:1013A000B0FBF1F707E009EBC90000EB0910316869
:1013B0008900B0FBF1F76420B7FBF0F004012009CD
:1013C000642101FB1078A88900F4004040B132206C
:1013D00000EBC800B0FBF1F000F00700044308E0A8
:1013E000322000EB08106421B0FBF1F000F00F0098
:1013F00004432C81BDE8FF87001001400014014028
:10140000C1F308028280704700BFFEE770B5044652
:101410000D4629462046FFF7F3FF00BF80212046F6
:10142000FFF776FF0028F9D070BD70B506460C4670
:10143000002500BF615D3046FFF7E8FF6D1C605D71
:101440000028F7D100BF40213046FFF761FF002898
:10145000F9D070BD0FB4054B10B503A9044A02982A
:1014600000F0DAF810BC5DF814FB0000491D00081C
:101470003800002002E008C8121F08C1002AFAD173
:1014800070477047002001E001C1121F002AFBD104
:10149000704700002DE9FF5F82B00021DDE90430D4
:1014A000020DDDF840B0034318D044F61050A2F20C
:1014B000FF3242431514119801281FD0A5EB0B00F1
:1014C000401C5FEA000A4FF000064E4FDFF83891EB
:1014D000B046504615D5CAF1000413E01198012416
:1014E0004AA3012801D16FEA0B010298119AC0E9C1
:1014F0000031C0E9024206B0BDE8F09FCBF1000028
:10150000DFE704460021404A491842EB0450CDE988
:10151000001012E0E00707D032463B4640464946FD
:10152000FEF761FF8046894632463B461046194623
:10153000FEF759FF06460F466410002CEAD1DDE99C
:101540000401DDE90023BAF1000F06DAFEF74BFFD4
:1015500042464B46FEF747FF05E0FEF7B6FF424620
:101560004B46FEF7B2FF04460E460022284BFFF71B
:1015700033F803D84FF0FF30014607E00022254B37
:1015800020463146FEF788FEFFF70EF8102409E0EA
:10159000002C0ADB0A220023FEF74DFE039B3032AB
:1015A0001A55641E50EA0102F2D1641C039AC4F178
:1015B00011031444119A012A03D0012208430DD1CA
:1015C0000AE0084304D000204FF0110B119072E79D
:1015D000A3EB0B056D1E0DE05B4504DD4FF0000233
:1015E00005F1010504E003DA4FF00002A5F1010561
:1015F000002AECD002981199C0E90231C0E90045F7
:1016000079E70000000014400000F03F30000000C7
:101610000000F0430000E03F2DE9FF4F95B09B46EE
:101620008946064600250FE2252877D10024274663
:10163000F84A0121059400E0044316F8013F203BDD
:1016400001FA03F01042F7D130782A2811D06FF058
:101650002F033078A0F13002092A16D8059A44F0F9
:10166000020402EB820203EB42021044761C059056
:10167000EFE759F8042B0592002A03DA504244F4AC
:101680000054059044F00204761C30782E2816D1C0
:1016900016F8010F44F004042A280DD06FF02F0231
:1016A0003078A0F13003092B09D807EB870302EB50
:1016B0004303C718761CF3E759F8047B761C30788F
:1016C0006C280FD006DC4C2817D068280DD06A286B
:1016D00014D104E0742810D07A280FD10DE044F41E
:1016E00000140AE044F4801401E044F440147278D9
:1016F000824202D104F58014761C761C307866286C
:101700000BD013DC582877D009DC002875D0452889
:10171000F6D04628F4D047281AD19DE118E0632876
:1017200035D0642879D0652812D195E1702873D01E
:1017300008DC6728F1D069286FD06E280DD06F289B
:1017400006D1B5E073282CD0752875D0782874D0D0
:101750005A46179990476D1C75E1C4F30250022850
:1017600009D003280DD0D9F8001004280DD00D6041
:1017700009F1040967E1D9F80010EA17C1E900523C
:10178000F6E7D9F800100D80F2E70D70F0E719F8D0
:10179000041B8DF8001000208DF80100EA4601209E
:1017A00003E059F804AB4FF0FF3061074FF0000140
:1017B00002D40DE008F101018846B9420FDA8045F4
:1017C000F8DB1AF808100029F4D108E008F101014B
:1017D00088468142FADB1AF808100029F6D10598EC
:1017E0005B46A0EB080721463846179A00F094FAAA
:1017F000284400EB080507E04DE029E10DE01AF868
:10180000010B5A4617999047B8F10108F7D25B4689
:1018100021463846179A13E142E00A220092C4F3A7
:1018200002524FF0000A022A08D059F804CB032ACA
:101830004FEAEC710AD00DE029E02AE009F1070136
:1018400021F00702F2E802C1914609E00FFA8CFC90
:101850004FEAEC71042A03D14FFA8CFC4FEAEC7189
:10186000002907DA0A460021DCF1000C61EB0201D5
:101870002D2202E0220504D52B228DF8042001221E
:1018800003E0E20701D02022F7E7904659E00A2161
:1018900002E010220DE010214FF0000A00910BE051
:1018A00010224FF0000A44F004040827009203E0DD
:1018B00008224FF0000A0092C4F30252022A05D017
:1018C00059F804CB0021032A08D009E009F10701E7
:1018D00021F00702F2E802C1914605E01FFA8CFCF4
:1018E000042A01D10CF0FF0C4FF00008220728D584
:1018F000702806D0009B83F0100353EA0A0305D03A
:101900000EE040228DF80420012208E05CEA01028A
:1019100006D030228DF804208DF805000222904672
:10192000009B83F0080353EA0A030AD15CEA010230
:1019300001D1620705D530228DF804204FF001084F
:101940007F1E582804D034A003900EA802900DE00A
:1019500036A0F9E753466046009AFEF76CFC8446D1
:101960000398825C0298401E029002705CEA0100BB
:10197000F0D1029806A9081A00F1200A600702D5E2
:1019800024F4803400E00127574502DDA7EB0A006C
:1019900000E0002000EB0A01009005984144401A45
:1019A0000590E00306D45B462146179A059800F09F
:1019B000B3F90544002706E001A85A46C05D17990F
:1019C00090476D1C7F1C4745F6DBE0030CD55B465A
:1019D0002146179A059800F09FF9054404E030204D
:1019E0005A46179990476D1C0099481E009000298F
:1019F000F5DC08E0029802995A460078491C0291E9
:101A0000179990476D1CBAF10001AAF1010AF1DCA7
:101A100065E10000092801003031323334353637B2
:101A2000383961626364656600000000303132332A
:101A300034353637383941424344454600000000CA
:101A400000F058F90544761C307800287FF4ECAD9E
:101A500019B02846BDE8F08F620700D4062709F1C7
:101A6000070222F0070CFCE80223E14603F00048DD
:101A70005FEA080C02D00FF2702C0DE05FEA045C04
:101A800002D50FF2682C07E05FEAC47C02D00FF2A7
:101A9000602C01E0AFF2700C4FF0FF3823F00043F0
:101AA000CDF850C065280CD006DC452809D0462862
:101AB0001DD047283DD13DE0662818D067287ED14B
:101AC00038E00021112F01DB112000E0781CCDE966
:101AD000000106A90EA8FFF7DDFCDDE90F010E9A53
:101AE00003910021009207F1010A04914DE04FF0AB
:101AF00000400097CDE9011006A90EA8FFF7CAFC27
:101B0000DDE90F0203920E9B11990022DDF80CA073
:101B10000093049211B9791C00EB010AB7EB0A009B
:101B200004D4C0F1FF3007F1010A0490AAEB0700CA
:101B3000019044E0012F00DA01270021112F01DD7F
:101B4000112000E03846CDE9000106A90EA8FFF7F4
:101B5000A1FCDDE90F010E9A03910021049100928E
:101B6000BA4621070CD40399514500DA8A46BAF1E6
:101B7000010F05DD009AAAF10101515C302908D05E
:101B8000B84202DA10F1040F06DA0121CDE90110A2
:101B900015E0AAF10101E9E7002805DC04990144F8
:101BA0000491AAEB000102E0411C514500DD8A4688
:101BB0000499401A401C01904FF000400290200709
:101BC00004D40198504501DBCDF8048000208DF845
:101BD0004F0002980DF14F07B0F1004F25D02B2098
:101BE0000E9002984FF0020800280CDA4042029052
:101BF0002D200E9007E00A210298FEF706FB3031F7
:101C0000029007F8011DB8F10001A8F10108F2DC0B
:101C100002980028EFD1791E0E980870307800F0F5
:101C2000200040F0450007F8020D12A8C01B00F18B
:101C300007081498007800B1012000EB0A01019810
:101C400001EBE07105984144401A401E0590E00305
:101C500006D45B462146179A059800F05DF80544C6
:101C60001498007818B15A46179990476D1CE003F4
:101C700024D55B462146179A059800F04DF8054497
:101C80001CE00498002807DBDDE90301884203DD3E
:101C90000098405C179901E0179930205A46904708
:101CA000049805F10105401C04900198401E019024
:101CB00004D12E205A46179990476D1CBAF10001A5
:101CC000AAF1010ADDDC05E017F8010B5A46179965
:101CD00090476D1CB8F10001A8F10108F4DC5B46E7
:101CE0002146179A0598ABE62D0000002B00000056
:101CF000200000002DE9F041044600251E4617464D
:101D0000880404D405E039462020B0476D1C641EC9
:101D1000F9D52846BDE8F0812DE9F04104460025BB
:101D20001E469046C80301D5302700E020278804CE
:101D300004D505E041463846B0476D1C641EF9D510
:101D40002846BDE8F081000070B504460D46E1B2BA
:101D50000548FFF755FB00BF80210348FFF7D8FA7D
:101D60000028F9D0204670BD0010014010B5FEF7E4
:101D70003DFEFEF7D5FFFFF797F8FFF795FA10BD88
:101D8000FFF7F4FF0BA11048FFF74FFB0FA0FFF781
:101D900061FB0DE008201349088341F28830FFF70A
:101DA00045F908200F49488341F28830FFF73EF992
:101DB000F0E70000C8EDCCE5BBFAC6F7C8CBC4A37A
:101DC000BFE9B2E2CAD40A0000100140BCCCB5E7BA
:101DD000C6F7D3EBBDD3CAD5CAFDBEDDB2E2CAD4C5
:101DE0000A00000000200240081E00080000002039
:101DF0003C00000074140008441E00083C00002051
:101E000004040000841400080095BA0A00000000D1
:101E1000000000000102030406070809000000009A
:101E20000102030401020304060708090000000080
:101E300000000000000000000000000000000000A2
:041E4000000000009E
:04000005080001AD41
:00000001FF
